{
  "contractName": "Daugiacontract",
  "abi": [
    {
      "inputs": [
        {
          "internalType": "uint256",
          "name": "_biddingtime",
          "type": "uint256"
        },
        {
          "internalType": "address payable",
          "name": "_beneficiary",
          "type": "address"
        }
      ],
      "stateMutability": "nonpayable",
      "type": "constructor"
    },
    {
      "anonymous": false,
      "inputs": [
        {
          "indexed": false,
          "internalType": "address",
          "name": "winner",
          "type": "address"
        },
        {
          "indexed": false,
          "internalType": "uint256",
          "name": "bid",
          "type": "uint256"
        }
      ],
      "name": "sessionWinner",
      "type": "event"
    },
    {
      "anonymous": false,
      "inputs": [
        {
          "indexed": false,
          "internalType": "address",
          "name": "bidder",
          "type": "address"
        },
        {
          "indexed": false,
          "internalType": "uint256",
          "name": "bid",
          "type": "uint256"
        }
      ],
      "name": "updateHighestBid",
      "type": "event"
    },
    {
      "inputs": [],
      "name": "beneficiary",
      "outputs": [
        {
          "internalType": "address payable",
          "name": "",
          "type": "address"
        }
      ],
      "stateMutability": "view",
      "type": "function",
      "constant": true
    },
    {
      "inputs": [],
      "name": "ended",
      "outputs": [
        {
          "internalType": "bool",
          "name": "",
          "type": "bool"
        }
      ],
      "stateMutability": "view",
      "type": "function",
      "constant": true
    },
    {
      "inputs": [],
      "name": "endtime",
      "outputs": [
        {
          "internalType": "uint256",
          "name": "",
          "type": "uint256"
        }
      ],
      "stateMutability": "view",
      "type": "function",
      "constant": true
    },
    {
      "inputs": [],
      "name": "highestBid",
      "outputs": [
        {
          "internalType": "uint256",
          "name": "",
          "type": "uint256"
        }
      ],
      "stateMutability": "view",
      "type": "function",
      "constant": true
    },
    {
      "inputs": [],
      "name": "highestBidder",
      "outputs": [
        {
          "internalType": "address",
          "name": "",
          "type": "address"
        }
      ],
      "stateMutability": "view",
      "type": "function",
      "constant": true
    },
    {
      "inputs": [
        {
          "internalType": "address",
          "name": "",
          "type": "address"
        }
      ],
      "name": "pendingReturns",
      "outputs": [
        {
          "internalType": "uint256",
          "name": "",
          "type": "uint256"
        }
      ],
      "stateMutability": "view",
      "type": "function",
      "constant": true
    },
    {
      "inputs": [],
      "name": "bid",
      "outputs": [],
      "stateMutability": "payable",
      "type": "function",
      "payable": true
    },
    {
      "inputs": [],
      "name": "withdraw",
      "outputs": [
        {
          "internalType": "bool",
          "name": "",
          "type": "bool"
        }
      ],
      "stateMutability": "nonpayable",
      "type": "function"
    },
    {
      "inputs": [],
      "name": "sessionEnd",
      "outputs": [],
      "stateMutability": "nonpayable",
      "type": "function"
    }
  ],
  "bytecode": "0x60806040526000600360146101000a81548160ff0219169083151502179055503480156200002c57600080fd5b5060405162000d7838038062000d78833981810160405281019062000052919062000153565b806000806101000a81548173ffffffffffffffffffffffffffffffffffffffff021916908373ffffffffffffffffffffffffffffffffffffffff1602179055508142620000a09190620001c9565b600181905550505062000226565b600080fd5b6000819050919050565b620000c881620000b3565b8114620000d457600080fd5b50565b600081519050620000e881620000bd565b92915050565b600073ffffffffffffffffffffffffffffffffffffffff82169050919050565b60006200011b82620000ee565b9050919050565b6200012d816200010e565b81146200013957600080fd5b50565b6000815190506200014d8162000122565b92915050565b600080604083850312156200016d576200016c620000ae565b5b60006200017d85828601620000d7565b925050602062000190858286016200013c565b9150509250929050565b7f4e487b7100000000000000000000000000000000000000000000000000000000600052601160045260246000fd5b6000620001d682620000b3565b9150620001e383620000b3565b9250827fffffffffffffffffffffffffffffffffffffffffffffffffffffffffffffffff038211156200021b576200021a6200019a565b5b828201905092915050565b610b4280620002366000396000f3fe6080604052600436106100865760003560e01c806338af3eed1161005957806338af3eed146101285780633ccfd60b146101535780636ca9ec471461017e57806391f9015714610195578063d57bde79146101c057610086565b806312fa6feb1461008b5780631998aeef146100b657806326b387bb146100c05780632ca126f8146100fd575b600080fd5b34801561009757600080fd5b506100a06101eb565b6040516100ad9190610732565b60405180910390f35b6100be6101fe565b005b3480156100cc57600080fd5b506100e760048036038101906100e291906107b0565b61040d565b6040516100f491906107f6565b60405180910390f35b34801561010957600080fd5b50610112610425565b60405161011f91906107f6565b60405180910390f35b34801561013457600080fd5b5061013d61042b565b60405161014a9190610832565b60405180910390f35b34801561015f57600080fd5b5061016861044f565b6040516101759190610732565b60405180910390f35b34801561018a57600080fd5b50610193610573565b005b3480156101a157600080fd5b506101aa6106eb565b6040516101b7919061085c565b60405180910390f35b3480156101cc57600080fd5b506101d5610711565b6040516101e291906107f6565b60405180910390f35b600360149054906101000a900460ff1681565b600154421115610243576040517f08c379a000000000000000000000000000000000000000000000000000000000815260040161023a906108d4565b60405180910390fd5b6002543411610287576040517f08c379a000000000000000000000000000000000000000000000000000000000815260040161027e90610966565b60405180910390fd5b6000600254146103665760025460046000600360009054906101000a900473ffffffffffffffffffffffffffffffffffffffff1673ffffffffffffffffffffffffffffffffffffffff1673ffffffffffffffffffffffffffffffffffffffff1681526020019081526020016000205461030091906109b5565b60046000600360009054906101000a900473ffffffffffffffffffffffffffffffffffffffff1673ffffffffffffffffffffffffffffffffffffffff1673ffffffffffffffffffffffffffffffffffffffff168152602001908152602001600020819055505b33600360006101000a81548173ffffffffffffffffffffffffffffffffffffffff021916908373ffffffffffffffffffffffffffffffffffffffff160217905550346002819055507f21499369afcf3f472eb9d9b90e70c8ae329fad4ebf9ec9b77a725e9be8c011a2600360009054906101000a900473ffffffffffffffffffffffffffffffffffffffff16600254604051610403929190610a0b565b60405180910390a1565b60046020528060005260406000206000915090505481565b60015481565b60008054906101000a900473ffffffffffffffffffffffffffffffffffffffff1681565b600080600460003373ffffffffffffffffffffffffffffffffffffffff1673ffffffffffffffffffffffffffffffffffffffff168152602001908152602001600020549050600081111561056a576000600460003373ffffffffffffffffffffffffffffffffffffffff1673ffffffffffffffffffffffffffffffffffffffff168152602001908152602001600020819055503373ffffffffffffffffffffffffffffffffffffffff166108fc829081150290604051600060405180830381858888f193505050506105695780600460003373ffffffffffffffffffffffffffffffffffffffff1673ffffffffffffffffffffffffffffffffffffffff168152602001908152602001600020819055506000915050610570565b5b60019150505b90565b600360149054906101000a900460ff16156105c3576040517f08c379a00000000000000000000000000000000000000000000000000000000081526004016105ba90610a80565b60405180910390fd5b600154421015610608576040517f08c379a00000000000000000000000000000000000000000000000000000000081526004016105ff90610aec565b60405180910390fd5b6001600360146101000a81548160ff0219169083151502179055507f835d9fc8de16c7933ea69c9f9ea88351b3f9543ac2a209133a4b536537b896f1600360009054906101000a900473ffffffffffffffffffffffffffffffffffffffff16600254604051610678929190610a0b565b60405180910390a160008054906101000a900473ffffffffffffffffffffffffffffffffffffffff1673ffffffffffffffffffffffffffffffffffffffff166108fc6002549081150290604051600060405180830381858888f193505050501580156106e8573d6000803e3d6000fd5b50565b600360009054906101000a900473ffffffffffffffffffffffffffffffffffffffff1681565b60025481565b60008115159050919050565b61072c81610717565b82525050565b60006020820190506107476000830184610723565b92915050565b600080fd5b600073ffffffffffffffffffffffffffffffffffffffff82169050919050565b600061077d82610752565b9050919050565b61078d81610772565b811461079857600080fd5b50565b6000813590506107aa81610784565b92915050565b6000602082840312156107c6576107c561074d565b5b60006107d48482850161079b565b91505092915050565b6000819050919050565b6107f0816107dd565b82525050565b600060208201905061080b60008301846107e7565b92915050565b600061081c82610752565b9050919050565b61082c81610811565b82525050565b60006020820190506108476000830184610823565b92915050565b61085681610772565b82525050565b6000602082019050610871600083018461084d565b92915050565b600082825260208201905092915050565b7f706869656e206461206b65742074687563000000000000000000000000000000600082015250565b60006108be601183610877565b91506108c982610888565b602082019050919050565b600060208201905081810360008301526108ed816108b1565b9050919050565b7f476961206375612062616e207468617020686f6e20676961206869656e20746160008201527f6900000000000000000000000000000000000000000000000000000000000000602082015250565b6000610950602183610877565b915061095b826108f4565b604082019050919050565b6000602082019050818103600083015261097f81610943565b9050919050565b7f4e487b7100000000000000000000000000000000000000000000000000000000600052601160045260246000fd5b60006109c0826107dd565b91506109cb836107dd565b9250827fffffffffffffffffffffffffffffffffffffffffffffffffffffffffffffffff03821115610a00576109ff610986565b5b828201905092915050565b6000604082019050610a20600083018561084d565b610a2d60208301846107e7565b9392505050565b7f506869656e206461206b65742074687563000000000000000000000000000000600082015250565b6000610a6a601183610877565b9150610a7582610a34565b602082019050919050565b60006020820190508181036000830152610a9981610a5d565b9050919050565b7f506869656e2063687561206b6574207468756300000000000000000000000000600082015250565b6000610ad6601383610877565b9150610ae182610aa0565b602082019050919050565b60006020820190508181036000830152610b0581610ac9565b905091905056fea2646970667358221220675c3f806efe54943439a5e8b05f0c46bcdafca561a72be87df669acca6c680664736f6c63430008090033",
  "immutableReferences": {},
  "source": "// SPDX-License-Identifier: MIT\npragma solidity >=0.7.0 <0.9.0;\n\ncontract Daugiacontract {\n\n    address payable public beneficiary;\n    uint public endtime;\n    uint public highestBid;\n    address public highestBidder;\n    bool public ended= false;\n\n    mapping(address=> uint) public pendingReturns;\n\n    event updateHighestBid(address bidder , uint bid);\n    event sessionWinner(address winner, uint bid);\n\n    constructor (uint _biddingtime, address payable _beneficiary){\n        beneficiary= _beneficiary;\n        endtime= block.timestamp + _biddingtime;\n    }\n\n    function bid() public payable {\n        if(block.timestamp> endtime){\n            revert(\"phien da ket thuc\");\n        }\n        if(msg.value <= highestBid){\n            revert(\"Gia cua ban thap hon gia hien tai\");\n        }\n        if(highestBid !=0){\n            pendingReturns[highestBidder] = pendingReturns[highestBidder] + highestBid;\n        }\n        highestBidder=msg.sender;\n        highestBid=msg.value;\n        emit updateHighestBid(highestBidder, highestBid);\n    }\n\n    function withdraw() public returns(bool){\n        uint amount = pendingReturns[msg.sender];\n        if(amount >0){\n            pendingReturns[msg.sender]=0;\n            if(!payable(msg.sender).send(amount)){\n                pendingReturns[msg.sender]=amount;\n                return false;\n            }\n        }\n        return true;\n    }\n\n    function sessionEnd() public {\n        if(ended){\n            revert(\"Phien da ket thuc\");\n        }\n        if(block.timestamp < endtime){\n            revert(\"Phien chua ket thuc\");\n        }\n        ended = true;\n        emit sessionWinner(highestBidder, highestBid);\n        beneficiary.transfer(highestBid);\n    }\n\n}",
  "sourcePath": "D:\\Nam 4 HK 2\\Thuc tap winnerfarm\\w3\\Test-w3\\contracts\\Daugiacontract.sol",
  "compiler": {
    "name": "solc",
    "version": "0.8.9+commit.e5eed63a.Emscripten.clang"
  },
  "schemaVersion": "3.4.16",
  "updatedAt": "2024-03-17T08:33:38.137Z",
  "networkType": "ethereum",
  "devdoc": {
    "kind": "dev",
    "methods": {},
    "version": 1
  },
  "userdoc": {
    "kind": "user",
    "methods": {},
    "version": 1
  }
}